{
  "31337": {
    "NftMarketPlace": [
      {
        "type": "error",
        "name": "InvalidInitialization",
        "inputs": []
      },
      {
        "type": "error",
        "name": "NftMarketPlace__AlreadyListed",
        "inputs": [
          {
            "type": "address",
            "name": "nftAddress"
          },
          {
            "type": "uint256",
            "name": "tokenId"
          }
        ]
      },
      {
        "type": "error",
        "name": "NftMarketPlace__NoProceeds",
        "inputs": []
      },
      {
        "type": "error",
        "name": "NftMarketPlace__NotApprovedForMarketPlace",
        "inputs": []
      },
      {
        "type": "error",
        "name": "NftMarketPlace__NotListed",
        "inputs": [
          {
            "type": "address",
            "name": "nftAddress"
          },
          {
            "type": "uint256",
            "name": "tokenId"
          }
        ]
      },
      {
        "type": "error",
        "name": "NftMarketPlace__NotOwner",
        "inputs": []
      },
      {
        "type": "error",
        "name": "NftMarketPlace__PriceMustBeAboveZero",
        "inputs": []
      },
      {
        "type": "error",
        "name": "NftMarketPlace__PriceNotMet",
        "inputs": []
      },
      {
        "type": "error",
        "name": "NftMarketPlace__TransferFailed",
        "inputs": []
      },
      {
        "type": "error",
        "name": "NotInitializing",
        "inputs": []
      },
      {
        "type": "error",
        "name": "ReentrancyGuardReentrantCall",
        "inputs": []
      },
      {
        "type": "event",
        "anonymous": false,
        "name": "Initialized",
        "inputs": [
          {
            "type": "uint64",
            "name": "version",
            "indexed": false
          }
        ]
      },
      {
        "type": "event",
        "anonymous": false,
        "name": "ItemBought",
        "inputs": [
          {
            "type": "address",
            "name": "buyer",
            "indexed": true
          },
          {
            "type": "address",
            "name": "nftAddress",
            "indexed": true
          },
          {
            "type": "uint256",
            "name": "tokenId",
            "indexed": true
          },
          {
            "type": "uint256",
            "name": "price",
            "indexed": false
          }
        ]
      },
      {
        "type": "event",
        "anonymous": false,
        "name": "ItemDeleted",
        "inputs": [
          {
            "type": "address",
            "name": "seller",
            "indexed": false
          },
          {
            "type": "address",
            "name": "nftAddress",
            "indexed": false
          },
          {
            "type": "uint256",
            "name": "tokenId",
            "indexed": false
          }
        ]
      },
      {
        "type": "event",
        "anonymous": false,
        "name": "ItemListed",
        "inputs": [
          {
            "type": "address",
            "name": "seller",
            "indexed": false
          },
          {
            "type": "address",
            "name": "nftAddress",
            "indexed": true
          },
          {
            "type": "uint256",
            "name": "tokenId",
            "indexed": true
          },
          {
            "type": "uint256",
            "name": "price",
            "indexed": false
          }
        ]
      },
      {
        "type": "function",
        "name": "buyItem",
        "constant": false,
        "stateMutability": "payable",
        "payable": true,
        "gas": 29000000,
        "inputs": [
          {
            "type": "address",
            "name": "nftAddress"
          },
          {
            "type": "uint256",
            "name": "tokenId"
          }
        ],
        "outputs": []
      },
      {
        "type": "function",
        "name": "deleteItem",
        "constant": false,
        "payable": false,
        "gas": 29000000,
        "inputs": [
          {
            "type": "address",
            "name": "nftAddress"
          },
          {
            "type": "uint256",
            "name": "tokenId"
          }
        ],
        "outputs": []
      },
      {
        "type": "function",
        "name": "getListing",
        "constant": true,
        "stateMutability": "view",
        "payable": false,
        "gas": 29000000,
        "inputs": [
          {
            "type": "address",
            "name": "nftAddress"
          },
          {
            "type": "uint256",
            "name": "tokenId"
          }
        ],
        "outputs": [
          {
            "type": "tuple",
            "components": [
              {
                "type": "uint256",
                "name": "price"
              },
              {
                "type": "address",
                "name": "seller"
              }
            ]
          }
        ]
      },
      {
        "type": "function",
        "name": "getProceeds",
        "constant": true,
        "stateMutability": "view",
        "payable": false,
        "gas": 29000000,
        "inputs": [
          {
            "type": "address",
            "name": "seller"
          }
        ],
        "outputs": [
          {
            "type": "uint256"
          }
        ]
      },
      {
        "type": "function",
        "name": "listItem",
        "constant": false,
        "payable": false,
        "gas": 29000000,
        "inputs": [
          {
            "type": "address",
            "name": "nftAddress"
          },
          {
            "type": "uint256",
            "name": "tokenId"
          },
          {
            "type": "uint256",
            "name": "price"
          }
        ],
        "outputs": []
      },
      {
        "type": "function",
        "name": "updateListing",
        "constant": false,
        "payable": false,
        "gas": 29000000,
        "inputs": [
          {
            "type": "address",
            "name": "nftAddress"
          },
          {
            "type": "uint256",
            "name": "tokenId"
          },
          {
            "type": "uint256",
            "name": "newPrice"
          }
        ],
        "outputs": []
      },
      {
        "type": "function",
        "name": "withdrawProceeds",
        "constant": false,
        "payable": false,
        "gas": 29000000,
        "inputs": [],
        "outputs": []
      }
    ]
  },
  "11155111": {
    "NftMarketPlace": [
      {
        "type": "error",
        "name": "InvalidInitialization",
        "inputs": []
      },
      {
        "type": "error",
        "name": "NftMarketPlace__AlreadyListed",
        "inputs": [
          {
            "type": "address",
            "name": "nftAddress"
          },
          {
            "type": "uint256",
            "name": "tokenId"
          }
        ]
      },
      {
        "type": "error",
        "name": "NftMarketPlace__NoProceeds",
        "inputs": []
      },
      {
        "type": "error",
        "name": "NftMarketPlace__NotApprovedForMarketPlace",
        "inputs": []
      },
      {
        "type": "error",
        "name": "NftMarketPlace__NotListed",
        "inputs": [
          {
            "type": "address",
            "name": "nftAddress"
          },
          {
            "type": "uint256",
            "name": "tokenId"
          }
        ]
      },
      {
        "type": "error",
        "name": "NftMarketPlace__NotOwner",
        "inputs": []
      },
      {
        "type": "error",
        "name": "NftMarketPlace__PriceMustBeAboveZero",
        "inputs": []
      },
      {
        "type": "error",
        "name": "NftMarketPlace__PriceNotMet",
        "inputs": []
      },
      {
        "type": "error",
        "name": "NftMarketPlace__TransferFailed",
        "inputs": []
      },
      {
        "type": "error",
        "name": "NotInitializing",
        "inputs": []
      },
      {
        "type": "error",
        "name": "ReentrancyGuardReentrantCall",
        "inputs": []
      },
      {
        "type": "event",
        "anonymous": false,
        "name": "Initialized",
        "inputs": [
          {
            "type": "uint64",
            "name": "version",
            "indexed": false
          }
        ]
      },
      {
        "type": "event",
        "anonymous": false,
        "name": "ItemBought",
        "inputs": [
          {
            "type": "address",
            "name": "buyer",
            "indexed": true
          },
          {
            "type": "address",
            "name": "nftAddress",
            "indexed": true
          },
          {
            "type": "uint256",
            "name": "tokenId",
            "indexed": true
          },
          {
            "type": "uint256",
            "name": "price",
            "indexed": false
          }
        ]
      },
      {
        "type": "event",
        "anonymous": false,
        "name": "ItemDeleted",
        "inputs": [
          {
            "type": "address",
            "name": "seller",
            "indexed": false
          },
          {
            "type": "address",
            "name": "nftAddress",
            "indexed": false
          },
          {
            "type": "uint256",
            "name": "tokenId",
            "indexed": false
          }
        ]
      },
      {
        "type": "event",
        "anonymous": false,
        "name": "ItemListed",
        "inputs": [
          {
            "type": "address",
            "name": "seller",
            "indexed": false
          },
          {
            "type": "address",
            "name": "nftAddress",
            "indexed": true
          },
          {
            "type": "uint256",
            "name": "tokenId",
            "indexed": true
          },
          {
            "type": "uint256",
            "name": "price",
            "indexed": false
          }
        ]
      },
      {
        "type": "function",
        "name": "buyItem",
        "constant": false,
        "stateMutability": "payable",
        "payable": true,
        "gas": 29000000,
        "inputs": [
          {
            "type": "address",
            "name": "nftAddress"
          },
          {
            "type": "uint256",
            "name": "tokenId"
          }
        ],
        "outputs": []
      },
      {
        "type": "function",
        "name": "deleteItem",
        "constant": false,
        "payable": false,
        "gas": 29000000,
        "inputs": [
          {
            "type": "address",
            "name": "nftAddress"
          },
          {
            "type": "uint256",
            "name": "tokenId"
          }
        ],
        "outputs": []
      },
      {
        "type": "function",
        "name": "getListing",
        "constant": true,
        "stateMutability": "view",
        "payable": false,
        "gas": 29000000,
        "inputs": [
          {
            "type": "address",
            "name": "nftAddress"
          },
          {
            "type": "uint256",
            "name": "tokenId"
          }
        ],
        "outputs": [
          {
            "type": "tuple",
            "components": [
              {
                "type": "uint256",
                "name": "price"
              },
              {
                "type": "address",
                "name": "seller"
              }
            ]
          }
        ]
      },
      {
        "type": "function",
        "name": "getProceeds",
        "constant": true,
        "stateMutability": "view",
        "payable": false,
        "gas": 29000000,
        "inputs": [
          {
            "type": "address",
            "name": "seller"
          }
        ],
        "outputs": [
          {
            "type": "uint256"
          }
        ]
      },
      {
        "type": "function",
        "name": "listItem",
        "constant": false,
        "payable": false,
        "gas": 29000000,
        "inputs": [
          {
            "type": "address",
            "name": "nftAddress"
          },
          {
            "type": "uint256",
            "name": "tokenId"
          },
          {
            "type": "uint256",
            "name": "price"
          }
        ],
        "outputs": []
      },
      {
        "type": "function",
        "name": "updateListing",
        "constant": false,
        "payable": false,
        "gas": 29000000,
        "inputs": [
          {
            "type": "address",
            "name": "nftAddress"
          },
          {
            "type": "uint256",
            "name": "tokenId"
          },
          {
            "type": "uint256",
            "name": "newPrice"
          }
        ],
        "outputs": []
      },
      {
        "type": "function",
        "name": "withdrawProceeds",
        "constant": false,
        "payable": false,
        "gas": 29000000,
        "inputs": [],
        "outputs": []
      }
    ]
  },
  "_format": "hh-sol-artifact-1",
  "contractName": "NftMarketPlace",
  "sourceName": "contracts/NftMarketPlace.sol",
  "abi": [
    {
      "inputs": [],
      "name": "InvalidInitialization",
      "type": "error"
    },
    {
      "inputs": [
        {
          "internalType": "address",
          "name": "nftAddress",
          "type": "address"
        },
        {
          "internalType": "uint256",
          "name": "tokenId",
          "type": "uint256"
        }
      ],
      "name": "NftMarketPlace__AlreadyListed",
      "type": "error"
    },
    {
      "inputs": [],
      "name": "NftMarketPlace__NoProceeds",
      "type": "error"
    },
    {
      "inputs": [],
      "name": "NftMarketPlace__NotApprovedForMarketPlace",
      "type": "error"
    },
    {
      "inputs": [
        {
          "internalType": "address",
          "name": "nftAddress",
          "type": "address"
        },
        {
          "internalType": "uint256",
          "name": "tokenId",
          "type": "uint256"
        }
      ],
      "name": "NftMarketPlace__NotListed",
      "type": "error"
    },
    {
      "inputs": [],
      "name": "NftMarketPlace__NotOwner",
      "type": "error"
    },
    {
      "inputs": [],
      "name": "NftMarketPlace__PriceMustBeAboveZero",
      "type": "error"
    },
    {
      "inputs": [],
      "name": "NftMarketPlace__PriceNotMet",
      "type": "error"
    },
    {
      "inputs": [],
      "name": "NftMarketPlace__TransferFailed",
      "type": "error"
    },
    {
      "inputs": [],
      "name": "NotInitializing",
      "type": "error"
    },
    {
      "inputs": [],
      "name": "ReentrancyGuardReentrantCall",
      "type": "error"
    },
    {
      "anonymous": false,
      "inputs": [
        {
          "indexed": false,
          "internalType": "uint64",
          "name": "version",
          "type": "uint64"
        }
      ],
      "name": "Initialized",
      "type": "event"
    },
    {
      "anonymous": false,
      "inputs": [
        {
          "indexed": true,
          "internalType": "address",
          "name": "buyer",
          "type": "address"
        },
        {
          "indexed": true,
          "internalType": "address",
          "name": "nftAddress",
          "type": "address"
        },
        {
          "indexed": true,
          "internalType": "uint256",
          "name": "tokenId",
          "type": "uint256"
        },
        {
          "indexed": false,
          "internalType": "uint256",
          "name": "price",
          "type": "uint256"
        }
      ],
      "name": "ItemBought",
      "type": "event"
    },
    {
      "anonymous": false,
      "inputs": [
        {
          "indexed": false,
          "internalType": "address",
          "name": "seller",
          "type": "address"
        },
        {
          "indexed": false,
          "internalType": "address",
          "name": "nftAddress",
          "type": "address"
        },
        {
          "indexed": false,
          "internalType": "uint256",
          "name": "tokenId",
          "type": "uint256"
        }
      ],
      "name": "ItemDeleted",
      "type": "event"
    },
    {
      "anonymous": false,
      "inputs": [
        {
          "indexed": true,
          "internalType": "address",
          "name": "seller",
          "type": "address"
        },
        {
          "indexed": true,
          "internalType": "address",
          "name": "nftAddress",
          "type": "address"
        },
        {
          "indexed": true,
          "internalType": "uint256",
          "name": "tokenId",
          "type": "uint256"
        },
        {
          "indexed": false,
          "internalType": "uint256",
          "name": "price",
          "type": "uint256"
        }
      ],
      "name": "ItemListed",
      "type": "event"
    },
    {
      "inputs": [
        {
          "internalType": "address",
          "name": "nftAddress",
          "type": "address"
        },
        {
          "internalType": "uint256",
          "name": "tokenId",
          "type": "uint256"
        }
      ],
      "name": "buyItem",
      "outputs": [],
      "stateMutability": "payable",
      "type": "function"
    },
    {
      "inputs": [
        {
          "internalType": "address",
          "name": "nftAddress",
          "type": "address"
        },
        {
          "internalType": "uint256",
          "name": "tokenId",
          "type": "uint256"
        }
      ],
      "name": "deleteItem",
      "outputs": [],
      "stateMutability": "nonpayable",
      "type": "function"
    },
    {
      "inputs": [
        {
          "internalType": "address",
          "name": "nftAddress",
          "type": "address"
        },
        {
          "internalType": "uint256",
          "name": "tokenId",
          "type": "uint256"
        }
      ],
      "name": "getListing",
      "outputs": [
        {
          "components": [
            {
              "internalType": "uint256",
              "name": "price",
              "type": "uint256"
            },
            {
              "internalType": "address",
              "name": "seller",
              "type": "address"
            }
          ],
          "internalType": "struct NftMarketPlace.Listing",
          "name": "",
          "type": "tuple"
        }
      ],
      "stateMutability": "view",
      "type": "function"
    },
    {
      "inputs": [
        {
          "internalType": "address",
          "name": "seller",
          "type": "address"
        }
      ],
      "name": "getProceeds",
      "outputs": [
        {
          "internalType": "uint256",
          "name": "",
          "type": "uint256"
        }
      ],
      "stateMutability": "view",
      "type": "function"
    },
    {
      "inputs": [
        {
          "internalType": "address",
          "name": "nftAddress",
          "type": "address"
        },
        {
          "internalType": "uint256",
          "name": "tokenId",
          "type": "uint256"
        },
        {
          "internalType": "uint256",
          "name": "price",
          "type": "uint256"
        }
      ],
      "name": "listItem",
      "outputs": [],
      "stateMutability": "nonpayable",
      "type": "function"
    },
    {
      "inputs": [
        {
          "internalType": "address",
          "name": "nftAddress",
          "type": "address"
        },
        {
          "internalType": "uint256",
          "name": "tokenId",
          "type": "uint256"
        },
        {
          "internalType": "uint256",
          "name": "newPrice",
          "type": "uint256"
        }
      ],
      "name": "updateListing",
      "outputs": [],
      "stateMutability": "nonpayable",
      "type": "function"
    },
    {
      "inputs": [],
      "name": "withdrawProceeds",
      "outputs": [],
      "stateMutability": "nonpayable",
      "type": "function"
    }
  ],
  "bytecode": "0x608060405234801561001057600080fd5b5061163e806100206000396000f3fe6080604052600436106100705760003560e01c806389bfd38f1161004e57806389bfd38f146101185780639038e693146101415780639f37092a14610158578063f772adf11461017457610070565b806330cfeda91461007557806337a14668146100b257806388700d1c146100db575b600080fd5b34801561008157600080fd5b5061009c60048036038101906100979190611326565b61019d565b6040516100a9919061136c565b60405180910390f35b3480156100be57600080fd5b506100d960048036038101906100d491906113b3565b6101e6565b005b3480156100e757600080fd5b5061010260048036038101906100fd91906113b3565b6104a4565b60405161010f9190611440565b60405180910390f35b34801561012457600080fd5b5061013f600480360381019061013a919061145b565b61056e565b005b34801561014d57600080fd5b506101566109c4565b005b610172600480360381019061016d91906113b3565b610b2e565b005b34801561018057600080fd5b5061019b6004803603810190610196919061145b565b610f01565b005b6000600160008373ffffffffffffffffffffffffffffffffffffffff1673ffffffffffffffffffffffffffffffffffffffff168152602001908152602001600020549050919050565b818133600083905060008173ffffffffffffffffffffffffffffffffffffffff16636352211e856040518263ffffffff1660e01b8152600401610229919061136c565b602060405180830381865afa158015610246573d6000803e3d6000fd5b505050506040513d601f19601f8201168201806040525081019061026a91906114c3565b90508073ffffffffffffffffffffffffffffffffffffffff168373ffffffffffffffffffffffffffffffffffffffff16146102d1576040517f49731c3b00000000000000000000000000000000000000000000000000000000815260040160405180910390fd5b868660008060008473ffffffffffffffffffffffffffffffffffffffff1673ffffffffffffffffffffffffffffffffffffffff1681526020019081526020016000206000838152602001908152602001600020604051806040016040529081600082015481526020016001820160009054906101000a900473ffffffffffffffffffffffffffffffffffffffff1673ffffffffffffffffffffffffffffffffffffffff1673ffffffffffffffffffffffffffffffffffffffff1681525050905060008160000151116103dc5782826040517f2e650be00000000000000000000000000000000000000000000000000000000081526004016103d39291906114ff565b60405180910390fd5b6000808b73ffffffffffffffffffffffffffffffffffffffff1673ffffffffffffffffffffffffffffffffffffffff16815260200190815260200160002060008a81526020019081526020016000206000808201600090556001820160006101000a81549073ffffffffffffffffffffffffffffffffffffffff021916905550507f57efb14213c676a19b24985c300769e3000724e73361b71a71ad899f6c86272b338b8b60405161049093929190611528565b60405180910390a150505050505050505050565b6104ac611293565b6000808473ffffffffffffffffffffffffffffffffffffffff1673ffffffffffffffffffffffffffffffffffffffff1681526020019081526020016000206000838152602001908152602001600020604051806040016040529081600082015481526020016001820160009054906101000a900473ffffffffffffffffffffffffffffffffffffffff1673ffffffffffffffffffffffffffffffffffffffff1673ffffffffffffffffffffffffffffffffffffffff1681525050905092915050565b828260008060008473ffffffffffffffffffffffffffffffffffffffff1673ffffffffffffffffffffffffffffffffffffffff1681526020019081526020016000206000838152602001908152602001600020604051806040016040529081600082015481526020016001820160009054906101000a900473ffffffffffffffffffffffffffffffffffffffff1673ffffffffffffffffffffffffffffffffffffffff1673ffffffffffffffffffffffffffffffffffffffff1681525050905060008160000151111561067a5782826040517ffa1d424f0000000000000000000000000000000000000000000000000000000081526004016106719291906114ff565b60405180910390fd5b858533600083905060008173ffffffffffffffffffffffffffffffffffffffff16636352211e856040518263ffffffff1660e01b81526004016106bd919061136c565b602060405180830381865afa1580156106da573d6000803e3d6000fd5b505050506040513d601f19601f820116820180604052508101906106fe91906114c3565b90508073ffffffffffffffffffffffffffffffffffffffff168373ffffffffffffffffffffffffffffffffffffffff1614610765576040517f49731c3b00000000000000000000000000000000000000000000000000000000815260040160405180910390fd5b6000891161079f576040517f01e6e2e700000000000000000000000000000000000000000000000000000000815260040160405180910390fd5b60008b90503073ffffffffffffffffffffffffffffffffffffffff168173ffffffffffffffffffffffffffffffffffffffff1663081812fc8d6040518263ffffffff1660e01b81526004016107f4919061136c565b602060405180830381865afa158015610811573d6000803e3d6000fd5b505050506040513d601f19601f8201168201806040525081019061083591906114c3565b73ffffffffffffffffffffffffffffffffffffffff1614610882576040517f94f87f7200000000000000000000000000000000000000000000000000000000815260040160405180910390fd5b60405180604001604052808b81526020013373ffffffffffffffffffffffffffffffffffffffff168152506000808e73ffffffffffffffffffffffffffffffffffffffff1673ffffffffffffffffffffffffffffffffffffffff16815260200190815260200160002060008d81526020019081526020016000206000820151816000015560208201518160010160006101000a81548173ffffffffffffffffffffffffffffffffffffffff021916908373ffffffffffffffffffffffffffffffffffffffff1602179055509050508a8c73ffffffffffffffffffffffffffffffffffffffff163373ffffffffffffffffffffffffffffffffffffffff167fd547e933094f12a9159076970143ebe73234e64480317844b0dcb36117116de48d6040516109ae919061136c565b60405180910390a4505050505050505050505050565b6000600160003373ffffffffffffffffffffffffffffffffffffffff1673ffffffffffffffffffffffffffffffffffffffff16815260200190815260200160002054905060008111610a42576040517faaefe00600000000000000000000000000000000000000000000000000000000815260040160405180910390fd5b6000600160003373ffffffffffffffffffffffffffffffffffffffff1673ffffffffffffffffffffffffffffffffffffffff1681526020019081526020016000208190555060003373ffffffffffffffffffffffffffffffffffffffff1682604051610aad90611590565b60006040518083038185875af1925050503d8060008114610aea576040519150601f19603f3d011682016040523d82523d6000602084013e610aef565b606091505b5050905080610b2a576040517fcf0afe3900000000000000000000000000000000000000000000000000000000815260040160405180910390fd5b5050565b610b366111fb565b818160008060008473ffffffffffffffffffffffffffffffffffffffff1673ffffffffffffffffffffffffffffffffffffffff1681526020019081526020016000206000838152602001908152602001600020604051806040016040529081600082015481526020016001820160009054906101000a900473ffffffffffffffffffffffffffffffffffffffff1673ffffffffffffffffffffffffffffffffffffffff1673ffffffffffffffffffffffffffffffffffffffff168152505090506000816000015111610c415782826040517f2e650be0000000000000000000000000000000000000000000000000000000008152600401610c389291906114ff565b60405180910390fd5b60008060008773ffffffffffffffffffffffffffffffffffffffff1673ffffffffffffffffffffffffffffffffffffffff1681526020019081526020016000206000868152602001908152602001600020604051806040016040529081600082015481526020016001820160009054906101000a900473ffffffffffffffffffffffffffffffffffffffff1673ffffffffffffffffffffffffffffffffffffffff1673ffffffffffffffffffffffffffffffffffffffff1681525050905060003411610d39576040517f32fe107c00000000000000000000000000000000000000000000000000000000815260040160405180910390fd5b3460016000836020015173ffffffffffffffffffffffffffffffffffffffff1673ffffffffffffffffffffffffffffffffffffffff1681526020019081526020016000206000828254610d8c91906115d4565b925050819055506000808773ffffffffffffffffffffffffffffffffffffffff1673ffffffffffffffffffffffffffffffffffffffff16815260200190815260200160002060008681526020019081526020016000206000808201600090556001820160006101000a81549073ffffffffffffffffffffffffffffffffffffffff021916905550508573ffffffffffffffffffffffffffffffffffffffff166342842e0e826020015133886040518463ffffffff1660e01b8152600401610e5593929190611528565b600060405180830381600087803b158015610e6f57600080fd5b505af1158015610e83573d6000803e3d6000fd5b50505050848673ffffffffffffffffffffffffffffffffffffffff163373ffffffffffffffffffffffffffffffffffffffff167f263223b1dd81e51054a4e6f791d45a4a1ddb4aadcd93a2dfd892615c3fdac1878460000151604051610ee9919061136c565b60405180910390a450505050610efd611252565b5050565b828233600083905060008173ffffffffffffffffffffffffffffffffffffffff16636352211e856040518263ffffffff1660e01b8152600401610f44919061136c565b602060405180830381865afa158015610f61573d6000803e3d6000fd5b505050506040513d601f19601f82011682018060405250810190610f8591906114c3565b90508073ffffffffffffffffffffffffffffffffffffffff168373ffffffffffffffffffffffffffffffffffffffff1614610fec576040517f49731c3b00000000000000000000000000000000000000000000000000000000815260040160405180910390fd5b878760008060008473ffffffffffffffffffffffffffffffffffffffff1673ffffffffffffffffffffffffffffffffffffffff1681526020019081526020016000206000838152602001908152602001600020604051806040016040529081600082015481526020016001820160009054906101000a900473ffffffffffffffffffffffffffffffffffffffff1673ffffffffffffffffffffffffffffffffffffffff1673ffffffffffffffffffffffffffffffffffffffff1681525050905060008160000151116110f75782826040517f2e650be00000000000000000000000000000000000000000000000000000000081526004016110ee9291906114ff565b60405180910390fd5b60008911611131576040517f01e6e2e700000000000000000000000000000000000000000000000000000000815260040160405180910390fd5b886000808d73ffffffffffffffffffffffffffffffffffffffff1673ffffffffffffffffffffffffffffffffffffffff16815260200190815260200160002060008c815260200190815260200160002060000181905550898b73ffffffffffffffffffffffffffffffffffffffff163373ffffffffffffffffffffffffffffffffffffffff167fd547e933094f12a9159076970143ebe73234e64480317844b0dcb36117116de48c6040516111e6919061136c565b60405180910390a45050505050505050505050565b600061120561126b565b90506002816000015403611245576040517f3ee5aeb500000000000000000000000000000000000000000000000000000000815260040160405180910390fd5b6002816000018190555050565b600061125c61126b565b90506001816000018190555050565b60007f9b779b17422d0df92223018b32b4d1fa46e071723d6817e2486d003becc55f00905090565b604051806040016040528060008152602001600073ffffffffffffffffffffffffffffffffffffffff1681525090565b600080fd5b600073ffffffffffffffffffffffffffffffffffffffff82169050919050565b60006112f3826112c8565b9050919050565b611303816112e8565b811461130e57600080fd5b50565b600081359050611320816112fa565b92915050565b60006020828403121561133c5761133b6112c3565b5b600061134a84828501611311565b91505092915050565b6000819050919050565b61136681611353565b82525050565b6000602082019050611381600083018461135d565b92915050565b61139081611353565b811461139b57600080fd5b50565b6000813590506113ad81611387565b92915050565b600080604083850312156113ca576113c96112c3565b5b60006113d885828601611311565b92505060206113e98582860161139e565b9150509250929050565b6113fc81611353565b82525050565b61140b816112e8565b82525050565b60408201600082015161142760008501826113f3565b50602082015161143a6020850182611402565b50505050565b60006040820190506114556000830184611411565b92915050565b600080600060608486031215611474576114736112c3565b5b600061148286828701611311565b93505060206114938682870161139e565b92505060406114a48682870161139e565b9150509250925092565b6000815190506114bd816112fa565b92915050565b6000602082840312156114d9576114d86112c3565b5b60006114e7848285016114ae565b91505092915050565b6114f9816112e8565b82525050565b600060408201905061151460008301856114f0565b611521602083018461135d565b9392505050565b600060608201905061153d60008301866114f0565b61154a60208301856114f0565b611557604083018461135d565b949350505050565b600081905092915050565b50565b600061157a60008361155f565b91506115858261156a565b600082019050919050565b600061159b8261156d565b9150819050919050565b7f4e487b7100000000000000000000000000000000000000000000000000000000600052601160045260246000fd5b60006115df82611353565b91506115ea83611353565b9250828201905080821115611602576116016115a5565b5b9291505056fea264697066735822122024f650253f0ba87b61072b39783256d2927f1066960394df2d5b2bb206f1c51c64736f6c63430008140033",
  "linkReferences": {},
  "deployedLinkReferences": {}
}